:020000040000FA
:08000000803102288731FD2F39
:100F0C008731A92787318731D0278731892F8031C5
:100F1C0002287108250098007108F3007008F2008F
:100F2C007208F300F2010630F500730DF30CF20CAD
:100F3C00F50B9B2F7208F600F60E1A087606CF39C1
:100F4C0076069A0008002100991319088739383859
:100F5C009900FC3099050C1623000C1683302100E7
:100F6C009D051D1410309E000C3025009A00FF309A
:100F7C0020009B00F33025009E05FC3020009C05D2
:100F8C0021008E0122008E010F3021008C002300E5
:100F9C008C010800E82F20000C087C0885007B08D9
:100FAC0084008435850D003084078830853D003FF2
:100FBC00FB00013FFC007C08F1007B08F00087314E
:100FCC008F27873121001C08F8001B08F700073019
:100FDC00F836F70C890BEE2F7718F52FF62FD12F4B
:100FEC000030F000F10087318F2787310800200096
:100FFC008731862F0134003402340034033400343A
:10100C00043400340534003406340034073400341E
:10101C0008340034093400340A3400340B340034FE
:10102C000C3400340D3400340E3400340F340034DE
:04103C001034003438
:00000001FF
