:020000040000FA
:08000000803102288731FD2F39
:100F4A008731D627873120000C0922008E00210024
:100F5A009D149D18B12FB22FAE2F1C08F1001B084B
:100F6A00F0008731BC278731A82F80310228710809
:100F7A00250098007108F3007008F2007208F30067
:100F8A00F2010630F500730DF30CF20CF50BC82FC5
:100F9A007208F600F60E1A087606CF3976069A0017
:100FAA000800210099131908873938389900FC304C
:100FBA0099050C1623000C160D3021009D001030E7
:100FCA009E000C3025009A00FF3020009B00F33071
:100FDA0025009E05FC3020009C051C1521008E0171
:100FEA0022008E010F3021008C0023008C010800A2
:060FFA0020008731A52F45
:00000001FF
